{
  "contractName": "ArithmeticAdvancedStorageProxy",
  "abi": [
    {
      "constant": true,
      "inputs": [],
      "name": "version",
      "outputs": [
        {
          "name": "",
          "type": "string"
        }
      ],
      "payable": false,
      "stateMutability": "view",
      "type": "function"
    },
    {
      "constant": false,
      "inputs": [
        {
          "name": "version",
          "type": "string"
        },
        {
          "name": "implementation",
          "type": "address"
        }
      ],
      "name": "upgradeTo",
      "outputs": [],
      "payable": false,
      "stateMutability": "nonpayable",
      "type": "function"
    },
    {
      "constant": true,
      "inputs": [],
      "name": "implementation",
      "outputs": [
        {
          "name": "",
          "type": "address"
        }
      ],
      "payable": false,
      "stateMutability": "view",
      "type": "function"
    },
    {
      "constant": true,
      "inputs": [],
      "name": "result",
      "outputs": [
        {
          "name": "",
          "type": "uint256"
        }
      ],
      "payable": false,
      "stateMutability": "view",
      "type": "function"
    },
    {
      "payable": true,
      "stateMutability": "payable",
      "type": "fallback"
    },
    {
      "anonymous": false,
      "inputs": [
        {
          "indexed": false,
          "name": "version",
          "type": "string"
        },
        {
          "indexed": true,
          "name": "implementation",
          "type": "address"
        }
      ],
      "name": "Upgraded",
      "type": "event"
    }
  ],
  "bytecode": "0x608060405234801561001057600080fd5b5061073c806100206000396000f3fe60806040526004361061005c576000357c01000000000000000000000000000000000000000000000000000000009004806354fd4d50146101a45780635a8b1a9f146102345780635c60da1b1461031c5780636537214714610373575b600061006661039e565b9050600073ffffffffffffffffffffffffffffffffffffffff168173ffffffffffffffffffffffffffffffffffffffff1614151515610133576040517f08c379a00000000000000000000000000000000000000000000000000000000081526004018080602001828103825260358152602001807f6f776e65722063616e6e6f742073657420697473656c6620617320746865206981526020017f6d706c656d656e746174696f6e2061646472657373000000000000000000000081525060400191505060405180910390fd5b60606000368080601f016020809104026020016040519081016040528093929190818152602001838380828437600081840152601f19601f82011690508083019250505050505050905060405136600082376000803683865af43d806000843e81600081146101a0578184f35b8184fd5b3480156101b057600080fd5b506101b96103c8565b6040518080602001828103825283818151815260200191508051906020019080838360005b838110156101f95780820151818401526020810190506101de565b50505050905090810190601f1680156102265780820380516001836020036101000a031916815260200191505b509250505060405180910390f35b34801561024057600080fd5b5061031a6004803603604081101561025757600080fd5b810190808035906020019064010000000081111561027457600080fd5b82018360208201111561028657600080fd5b803590602001918460018302840111640100000000831117156102a857600080fd5b91908080601f016020809104026020016040519081016040528093929190818152602001838380828437600081840152601f19601f820116905080830192505050505050509192919290803573ffffffffffffffffffffffffffffffffffffffff16906020019092919050505061046a565b005b34801561032857600080fd5b5061033161039e565b604051808273ffffffffffffffffffffffffffffffffffffffff1673ffffffffffffffffffffffffffffffffffffffff16815260200191505060405180910390f35b34801561037f57600080fd5b50610388610665565b6040518082815260200191505060405180910390f35b6000600260009054906101000a900473ffffffffffffffffffffffffffffffffffffffff16905090565b606060018054600181600116156101000203166002900480601f0160208091040260200160405190810160405280929190818152602001828054600181600116156101000203166002900480156104605780601f1061043557610100808354040283529160200191610460565b820191906000526020600020905b81548152906001019060200180831161044357829003601f168201915b5050505050905090565b8073ffffffffffffffffffffffffffffffffffffffff16600260009054906101000a900473ffffffffffffffffffffffffffffffffffffffff1673ffffffffffffffffffffffffffffffffffffffff1614151515610556576040517f08c379a000000000000000000000000000000000000000000000000000000000815260040180806020018281038252602e8152602001807f63616e6e6f7420757365206578697374696e6720696d706c656d656e7461746981526020017f6f6e20666f72207570677261646500000000000000000000000000000000000081525060400191505060405180910390fd5b816001908051906020019061056c92919061066b565b5080600260006101000a81548173ffffffffffffffffffffffffffffffffffffffff021916908373ffffffffffffffffffffffffffffffffffffffff1602179055508073ffffffffffffffffffffffffffffffffffffffff167f8e05e0e35ff592971ca8b477d4285a33a61ded208d644042667b78693a472f5e836040518080602001828103825283818151815260200191508051906020019080838360005b8381101561062757808201518184015260208101905061060c565b50505050905090810190601f1680156106545780820380516001836020036101000a031916815260200191505b509250505060405180910390a25050565b60005481565b828054600181600116156101000203166002900490600052602060002090601f016020900481019282601f106106ac57805160ff19168380011785556106da565b828001600101855582156106da579182015b828111156106d95782518255916020019190600101906106be565b5b5090506106e791906106eb565b5090565b61070d91905b808211156107095760008160009055506001016106f1565b5090565b9056fea165627a7a723058208de5004b9f2bc7e74a314953b84a440515fa9d40b92032b69adb030e0471ca640029",
  "source": "pragma solidity ^0.5.1;\n\nimport './ArithmeticAdvancedStorage.sol';\nimport '../proxy/UpgradeabilityProxy.sol';\n\n/**\n * @title ArithmeticAdvancedStorageProxy\n * @dev This proxy holds the storage of the ArithmeticAdvanced contract and\n * delegates every call to the current implementation set.\n * Besides, it allows to upgrade the ArithmeticAdvanced's behaviour towards further implementations,\n * and provides basic authorization control functionalities\n */\ncontract ArithmeticAdvancedStorageProxy is ArithmeticAdvancedStorage, UpgradeabilityProxy {\n\n    \n}",
  "sourcePath": "/Users/lakshmikanth/Documents/DefiZap/Solidity-Eternal-Proxy/contracts/advanced/ArithmeticAdvancedStorageProxy.sol",
  "compiler": {
    "name": "solc",
    "version": "0.5.1+commit.c8a2cb62.Linux.g++"
  },
  "schemaVersion": "3.0.18",
  "updatedAt": "2019-12-03T19:24:37.351Z",
  "devdoc": {
    "details": "This proxy holds the storage of the ArithmeticAdvanced contract and delegates every call to the current implementation set. Besides, it allows to upgrade the ArithmeticAdvanced's behaviour towards further implementations, and provides basic authorization control functionalities",
    "methods": {},
    "title": "ArithmeticAdvancedStorageProxy"
  },
  "userdoc": {
    "methods": {}
  }
}