{
  "contractName": "ArithmeticAdvanced",
  "abi": [
    {
      "constant": true,
      "inputs": [],
      "name": "name",
      "outputs": [
        {
          "name": "",
          "type": "string"
        }
      ],
      "payable": false,
      "stateMutability": "view",
      "type": "function"
    },
    {
      "constant": true,
      "inputs": [],
      "name": "result",
      "outputs": [
        {
          "name": "",
          "type": "uint256"
        }
      ],
      "payable": false,
      "stateMutability": "view",
      "type": "function"
    },
    {
      "anonymous": false,
      "inputs": [
        {
          "indexed": true,
          "name": "product",
          "type": "uint256"
        },
        {
          "indexed": false,
          "name": "a",
          "type": "uint256"
        },
        {
          "indexed": false,
          "name": "b",
          "type": "uint256"
        }
      ],
      "name": "MultiplyEvent",
      "type": "event"
    },
    {
      "constant": false,
      "inputs": [
        {
          "name": "_name",
          "type": "string"
        }
      ],
      "name": "initialize",
      "outputs": [],
      "payable": false,
      "stateMutability": "nonpayable",
      "type": "function"
    },
    {
      "constant": false,
      "inputs": [
        {
          "name": "a",
          "type": "uint256"
        },
        {
          "name": "b",
          "type": "uint256"
        }
      ],
      "name": "multiply",
      "outputs": [
        {
          "name": "",
          "type": "uint256"
        }
      ],
      "payable": false,
      "stateMutability": "nonpayable",
      "type": "function"
    }
  ],
  "bytecode": "0x608060405234801561001057600080fd5b50610424806100206000396000f3fe60806040526004361061005c576000357c01000000000000000000000000000000000000000000000000000000009004806306fdde0314610061578063165c4a16146100f1578063653721471461014a578063f62d188814610175575b600080fd5b34801561006d57600080fd5b5061007661023d565b6040518080602001828103825283818151815260200191508051906020019080838360005b838110156100b657808201518184015260208101905061009b565b50505050905090810190601f1680156100e35780820380516001836020036101000a031916815260200191505b509250505060405180910390f35b3480156100fd57600080fd5b506101346004803603604081101561011457600080fd5b8101908080359060200190929190803590602001909291905050506102db565b6040518082815260200191505060405180910390f35b34801561015657600080fd5b5061015f610333565b6040518082815260200191505060405180910390f35b34801561018157600080fd5b5061023b6004803603602081101561019857600080fd5b81019080803590602001906401000000008111156101b557600080fd5b8201836020820111156101c757600080fd5b803590602001918460018302840111640100000000831117156101e957600080fd5b91908080601f016020809104026020016040519081016040528093929190818152602001838380828437600081840152601f19601f820116905080830192505050505050509192919290505050610339565b005b60018054600181600116156101000203166002900480601f0160208091040260200160405190810160405280929190818152602001828054600181600116156101000203166002900480156102d35780601f106102a8576101008083540402835291602001916102d3565b820191906000526020600020905b8154815290600101906020018083116102b657829003601f168201915b505050505081565b60008183026000819055506000547f3451a6f8fd4b803cb990d059ba4fa618f238a4649e522ac81e83eb5b613d7fb18484604051808381526020018281526020019250505060405180910390a2600054905092915050565b60005481565b806001908051906020019061034f929190610353565b5050565b828054600181600116156101000203166002900490600052602060002090601f016020900481019282601f1061039457805160ff19168380011785556103c2565b828001600101855582156103c2579182015b828111156103c15782518255916020019190600101906103a6565b5b5090506103cf91906103d3565b5090565b6103f591905b808211156103f15760008160009055506001016103d9565b5090565b9056fea165627a7a723058206dcdfdb1161d451088d8633825aa08fa8c3efaeb0332b7a0f23cd2ac9bec47a50029",
  "source": "pragma solidity ^0.5.1;\n\nimport './ArithmeticAdvancedStorage.sol';\n\ncontract ArithmeticAdvanced is ArithmeticAdvancedStorage {\n    event MultiplyEvent(uint256 indexed product, uint256 a, uint256 b);\n    string public name;\n\n     function initialize(string memory  _name) public {\n        name = _name;\n    }\n\n    function multiply(uint256 a, uint256 b) public returns(uint256) {\n        result = a*b;\n        emit MultiplyEvent(result,a,b);\n        return result;\n    }\n}\n",
  "sourcePath": "/Users/lakshmikanth/Documents/DefiZap/Solidity-Eternal-Proxy/contracts/advanced/ArithmeticAdvanced.sol",
  "compiler": {
    "name": "solc",
    "version": "0.5.1+commit.c8a2cb62.Linux.g++"
  },
  "schemaVersion": "3.0.18",
  "updatedAt": "2019-12-03T19:24:37.346Z",
  "devdoc": {
    "methods": {}
  },
  "userdoc": {
    "methods": {}
  }
}