{
  "contractName": "Arithmetic",
  "abi": [
    {
      "constant": true,
      "inputs": [],
      "name": "name",
      "outputs": [
        {
          "name": "",
          "type": "string"
        }
      ],
      "payable": false,
      "stateMutability": "view",
      "type": "function"
    },
    {
      "anonymous": false,
      "inputs": [
        {
          "indexed": true,
          "name": "sum",
          "type": "uint256"
        },
        {
          "indexed": false,
          "name": "a",
          "type": "uint256"
        },
        {
          "indexed": false,
          "name": "b",
          "type": "uint256"
        }
      ],
      "name": "addEvent",
      "type": "event"
    },
    {
      "anonymous": false,
      "inputs": [
        {
          "indexed": true,
          "name": "substract",
          "type": "uint256"
        },
        {
          "indexed": false,
          "name": "a",
          "type": "uint256"
        },
        {
          "indexed": false,
          "name": "b",
          "type": "uint256"
        }
      ],
      "name": "subtractEvent",
      "type": "event"
    },
    {
      "constant": false,
      "inputs": [
        {
          "name": "_name",
          "type": "string"
        }
      ],
      "name": "initialize",
      "outputs": [],
      "payable": false,
      "stateMutability": "nonpayable",
      "type": "function"
    },
    {
      "constant": false,
      "inputs": [
        {
          "name": "a",
          "type": "uint256"
        },
        {
          "name": "b",
          "type": "uint256"
        }
      ],
      "name": "add",
      "outputs": [
        {
          "name": "",
          "type": "uint256"
        }
      ],
      "payable": false,
      "stateMutability": "nonpayable",
      "type": "function"
    },
    {
      "constant": false,
      "inputs": [
        {
          "name": "a",
          "type": "uint256"
        },
        {
          "name": "b",
          "type": "uint256"
        }
      ],
      "name": "subtract",
      "outputs": [
        {
          "name": "",
          "type": "uint256"
        }
      ],
      "payable": false,
      "stateMutability": "nonpayable",
      "type": "function"
    }
  ],
  "bytecode": "0x608060405234801561001057600080fd5b506104a4806100206000396000f3fe60806040526004361061005c576000357c01000000000000000000000000000000000000000000000000000000009004806306fdde03146100615780633ef5e445146100f1578063771602f71461014a578063f62d1888146101a3575b600080fd5b34801561006d57600080fd5b5061007661026b565b6040518080602001828103825283818151815260200191508051906020019080838360005b838110156100b657808201518184015260208101905061009b565b50505050905090810190601f1680156100e35780820380516001836020036101000a031916815260200191505b509250505060405180910390f35b3480156100fd57600080fd5b506101346004803603604081101561011457600080fd5b810190808035906020019092919080359060200190929190505050610309565b6040518082815260200191505060405180910390f35b34801561015657600080fd5b5061018d6004803603604081101561016d57600080fd5b810190808035906020019092919080359060200190929190505050610361565b6040518082815260200191505060405180910390f35b3480156101af57600080fd5b50610269600480360360208110156101c657600080fd5b81019080803590602001906401000000008111156101e357600080fd5b8201836020820111156101f557600080fd5b8035906020019184600183028401116401000000008311171561021757600080fd5b91908080601f016020809104026020016040519081016040528093929190818152602001838380828437600081840152601f19601f8201169050808301925050505050505091929192905050506103b9565b005b60018054600181600116156101000203166002900480601f0160208091040260200160405190810160405280929190818152602001828054600181600116156101000203166002900480156103015780601f106102d657610100808354040283529160200191610301565b820191906000526020600020905b8154815290600101906020018083116102e457829003601f168201915b505050505081565b60008183036002819055506002547f4169658e71e9bfad250e41631db4a1124384de7cc0d4cdb105d2b08be795439f8484604051808381526020018281526020019250505060405180910390a2600254905092915050565b60008183016002819055506002547ff639bd6b84a8831cd07b2ac9f171ca968a1ab9f1140b20d178e56810de25b5308484604051808381526020018281526020019250505060405180910390a2600254905092915050565b80600190805190602001906103cf9291906103d3565b5050565b828054600181600116156101000203166002900490600052602060002090601f016020900481019282601f1061041457805160ff1916838001178555610442565b82800160010185558215610442579182015b82811115610441578251825591602001919060010190610426565b5b50905061044f9190610453565b5090565b61047591905b80821115610471576000816000905550600101610459565b5090565b9056fea165627a7a72305820c07d280f68de1b5186aa654050263ea0eb06e93e37e62552d8c1f0b2177014cf0029",
  "source": "pragma solidity ^0.5.1;\n\nimport './ArithmeticStorage.sol';\n\ncontract Arithmetic is ArithmeticStorage {\n\n    event addEvent(uint256 indexed sum, uint256 a, uint256 b);\n    event subtractEvent(uint256 indexed substract, uint256 a, uint256 b);\n     string public name;\n     uint256 private result;\n\n     function initialize(string memory  _name) public {\n        name = _name;\n    }\n\n    function add(uint256 a, uint256 b) public returns(uint256) {\n        result = a+b;\n        emit addEvent(result,a,b);\n        return result;\n    }\n\n    function subtract(uint256 a, uint256 b) public returns(uint256) {\n        result = a-b;\n        emit subtractEvent(result,a,b);\n        return result;\n    }\n}\n",
  "sourcePath": "/Users/lakshmikanth/Documents/DefiZap/Solidity-Eternal-Proxy/contracts/arithmetic/Arithmetic.sol",
  "compiler": {
    "name": "solc",
    "version": "0.5.1+commit.c8a2cb62.Linux.g++"
  },
  "schemaVersion": "3.0.18",
  "updatedAt": "2019-12-03T19:26:15.281Z",
  "networkType": "ethereum",
  "devdoc": {
    "methods": {}
  },
  "userdoc": {
    "methods": {}
  }
}