{
  "contractName": "ArithmeticProxy",
  "abi": [
    {
      "constant": true,
      "inputs": [],
      "name": "name",
      "outputs": [
        {
          "name": "",
          "type": "string"
        }
      ],
      "payable": false,
      "stateMutability": "view",
      "type": "function"
    },
    {
      "constant": false,
      "inputs": [
        {
          "name": "a",
          "type": "uint256"
        },
        {
          "name": "b",
          "type": "uint256"
        }
      ],
      "name": "subtract",
      "outputs": [
        {
          "name": "",
          "type": "uint256"
        }
      ],
      "payable": false,
      "stateMutability": "nonpayable",
      "type": "function"
    },
    {
      "constant": true,
      "inputs": [],
      "name": "version",
      "outputs": [
        {
          "name": "",
          "type": "string"
        }
      ],
      "payable": false,
      "stateMutability": "view",
      "type": "function"
    },
    {
      "constant": false,
      "inputs": [
        {
          "name": "version",
          "type": "string"
        },
        {
          "name": "implementation",
          "type": "address"
        }
      ],
      "name": "upgradeTo",
      "outputs": [],
      "payable": false,
      "stateMutability": "nonpayable",
      "type": "function"
    },
    {
      "constant": true,
      "inputs": [],
      "name": "implementation",
      "outputs": [
        {
          "name": "",
          "type": "address"
        }
      ],
      "payable": false,
      "stateMutability": "view",
      "type": "function"
    },
    {
      "constant": false,
      "inputs": [
        {
          "name": "a",
          "type": "uint256"
        },
        {
          "name": "b",
          "type": "uint256"
        }
      ],
      "name": "add",
      "outputs": [
        {
          "name": "",
          "type": "uint256"
        }
      ],
      "payable": false,
      "stateMutability": "nonpayable",
      "type": "function"
    },
    {
      "constant": false,
      "inputs": [
        {
          "name": "_name",
          "type": "string"
        }
      ],
      "name": "initialize",
      "outputs": [],
      "payable": false,
      "stateMutability": "nonpayable",
      "type": "function"
    },
    {
      "payable": true,
      "stateMutability": "payable",
      "type": "fallback"
    },
    {
      "anonymous": false,
      "inputs": [
        {
          "indexed": false,
          "name": "version",
          "type": "string"
        },
        {
          "indexed": true,
          "name": "implementation",
          "type": "address"
        }
      ],
      "name": "Upgraded",
      "type": "event"
    },
    {
      "anonymous": false,
      "inputs": [
        {
          "indexed": true,
          "name": "sum",
          "type": "uint256"
        },
        {
          "indexed": false,
          "name": "a",
          "type": "uint256"
        },
        {
          "indexed": false,
          "name": "b",
          "type": "uint256"
        }
      ],
      "name": "addEvent",
      "type": "event"
    },
    {
      "anonymous": false,
      "inputs": [
        {
          "indexed": true,
          "name": "substract",
          "type": "uint256"
        },
        {
          "indexed": false,
          "name": "a",
          "type": "uint256"
        },
        {
          "indexed": false,
          "name": "b",
          "type": "uint256"
        }
      ],
      "name": "subtractEvent",
      "type": "event"
    }
  ],
  "bytecode": "0x608060405234801561001057600080fd5b50610a9e806100206000396000f3fe60806040526004361061007d576000357c01000000000000000000000000000000000000000000000000000000009004806306fdde03146101c55780633ef5e4451461025557806354fd4d50146102ae5780635a8b1a9f1461033e5780635c60da1b14610426578063771602f71461047d578063f62d1888146104d6575b600061008761059e565b9050600073ffffffffffffffffffffffffffffffffffffffff168173ffffffffffffffffffffffffffffffffffffffff1614151515610154576040517f08c379a00000000000000000000000000000000000000000000000000000000081526004018080602001828103825260358152602001807f6f776e65722063616e6e6f742073657420697473656c6620617320746865206981526020017f6d706c656d656e746174696f6e2061646472657373000000000000000000000081525060400191505060405180910390fd5b60606000368080601f016020809104026020016040519081016040528093929190818152602001838380828437600081840152601f19601f82011690508083019250505050505050905060405136600082376000803683865af43d806000843e81600081146101c1578184f35b8184fd5b3480156101d157600080fd5b506101da6105c8565b6040518080602001828103825283818151815260200191508051906020019080838360005b8381101561021a5780820151818401526020810190506101ff565b50505050905090810190601f1680156102475780820380516001836020036101000a031916815260200191505b509250505060405180910390f35b34801561026157600080fd5b506102986004803603604081101561027857600080fd5b810190808035906020019092919080359060200190929190505050610666565b6040518082815260200191505060405180910390f35b3480156102ba57600080fd5b506102c36106be565b6040518080602001828103825283818151815260200191508051906020019080838360005b838110156103035780820151818401526020810190506102e8565b50505050905090810190601f1680156103305780820380516001836020036101000a031916815260200191505b509250505060405180910390f35b34801561034a57600080fd5b506104246004803603604081101561036157600080fd5b810190808035906020019064010000000081111561037e57600080fd5b82018360208201111561039057600080fd5b803590602001918460018302840111640100000000831117156103b257600080fd5b91908080601f016020809104026020016040519081016040528093929190818152602001838380828437600081840152601f19601f820116905080830192505050505050509192919290803573ffffffffffffffffffffffffffffffffffffffff169060200190929190505050610760565b005b34801561043257600080fd5b5061043b61059e565b604051808273ffffffffffffffffffffffffffffffffffffffff1673ffffffffffffffffffffffffffffffffffffffff16815260200191505060405180910390f35b34801561048957600080fd5b506104c0600480360360408110156104a057600080fd5b81019080803590602001909291908035906020019092919050505061095b565b6040518082815260200191505060405180910390f35b3480156104e257600080fd5b5061059c600480360360208110156104f957600080fd5b810190808035906020019064010000000081111561051657600080fd5b82018360208201111561052857600080fd5b8035906020019184600183028401116401000000008311171561054a57600080fd5b91908080601f016020809104026020016040519081016040528093929190818152602001838380828437600081840152601f19601f8201169050808301925050505050505091929192905050506109b3565b005b6000600460009054906101000a900473ffffffffffffffffffffffffffffffffffffffff16905090565b60018054600181600116156101000203166002900480601f01602080910402602001604051908101604052809291908181526020018280546001816001161561010002031660029004801561065e5780601f106106335761010080835404028352916020019161065e565b820191906000526020600020905b81548152906001019060200180831161064157829003601f168201915b505050505081565b60008183036002819055506002547f4169658e71e9bfad250e41631db4a1124384de7cc0d4cdb105d2b08be795439f8484604051808381526020018281526020019250505060405180910390a2600254905092915050565b606060038054600181600116156101000203166002900480601f0160208091040260200160405190810160405280929190818152602001828054600181600116156101000203166002900480156107565780601f1061072b57610100808354040283529160200191610756565b820191906000526020600020905b81548152906001019060200180831161073957829003601f168201915b5050505050905090565b8073ffffffffffffffffffffffffffffffffffffffff16600460009054906101000a900473ffffffffffffffffffffffffffffffffffffffff1673ffffffffffffffffffffffffffffffffffffffff161415151561084c576040517f08c379a000000000000000000000000000000000000000000000000000000000815260040180806020018281038252602e8152602001807f63616e6e6f7420757365206578697374696e6720696d706c656d656e7461746981526020017f6f6e20666f72207570677261646500000000000000000000000000000000000081525060400191505060405180910390fd5b81600390805190602001906108629291906109cd565b5080600460006101000a81548173ffffffffffffffffffffffffffffffffffffffff021916908373ffffffffffffffffffffffffffffffffffffffff1602179055508073ffffffffffffffffffffffffffffffffffffffff167f8e05e0e35ff592971ca8b477d4285a33a61ded208d644042667b78693a472f5e836040518080602001828103825283818151815260200191508051906020019080838360005b8381101561091d578082015181840152602081019050610902565b50505050905090810190601f16801561094a5780820380516001836020036101000a031916815260200191505b509250505060405180910390a25050565b60008183016002819055506002547ff639bd6b84a8831cd07b2ac9f171ca968a1ab9f1140b20d178e56810de25b5308484604051808381526020018281526020019250505060405180910390a2600254905092915050565b80600190805190602001906109c99291906109cd565b5050565b828054600181600116156101000203166002900490600052602060002090601f016020900481019282601f10610a0e57805160ff1916838001178555610a3c565b82800160010185558215610a3c579182015b82811115610a3b578251825591602001919060010190610a20565b5b509050610a499190610a4d565b5090565b610a6f91905b80821115610a6b576000816000905550600101610a53565b5090565b9056fea165627a7a72305820004375064a47dbce1af61d89e9e49e14064aa13a94742672c5ccfdc9a3214a5d0029",
  "source": "pragma solidity ^0.5.1;\n\nimport './Arithmetic.sol';\nimport '../proxy/UpgradeabilityProxy.sol';\n\n/**\n * @title ArithmeticProxy\n * @dev This proxy holds the storage of the Arithmetic contract and\n * delegates every call to the current implementation set.\n * Besides, it allows to upgrade the Arithmetic's behaviour towards further implementations,\n * and provides basic authorization control functionalities\n */\ncontract ArithmeticProxy is Arithmetic, UpgradeabilityProxy {\n\n  \n}",
  "sourcePath": "/Users/lakshmikanth/Documents/DefiZap/Solidity-Eternal-Proxy/contracts/arithmetic/ArithmeticProxy.sol",
  "compiler": {
    "name": "solc",
    "version": "0.5.1+commit.c8a2cb62.Linux.g++"
  },
  "schemaVersion": "3.0.18",
  "updatedAt": "2019-12-03T19:29:15.837Z",
  "networkType": "ethereum",
  "devdoc": {
    "details": "This proxy holds the storage of the Arithmetic contract and delegates every call to the current implementation set. Besides, it allows to upgrade the Arithmetic's behaviour towards further implementations, and provides basic authorization control functionalities",
    "methods": {},
    "title": "ArithmeticProxy"
  },
  "userdoc": {
    "methods": {}
  }
}