{
  "contractName": "ArithmeticAdvancedStorage",
  "abi": [
    {
      "constant": true,
      "inputs": [],
      "name": "result",
      "outputs": [
        {
          "name": "",
          "type": "uint256"
        }
      ],
      "payable": false,
      "stateMutability": "view",
      "type": "function"
    }
  ],
  "bytecode": "0x6080604052348015600f57600080fd5b5060988061001e6000396000f3fe6080604052600436106039576000357c0100000000000000000000000000000000000000000000000000000000900480636537214714603e575b600080fd5b348015604957600080fd5b5060506066565b6040518082815260200191505060405180910390f35b6000548156fea165627a7a72305820b010e27e4737021cdc2d39b66347dfa35b9fa03684786ab888472ed1b174ed6b0029",
  "source": "pragma solidity ^0.5.1;\n\ncontract ArithmeticAdvancedStorage {\n    uint256 public result;\n}",
  "sourcePath": "/Users/lakshmikanth/Documents/DefiZap/Solidity-Eternal-Proxy/contracts/advanced/ArithmeticAdvancedStorage.sol",
  "compiler": {
    "name": "solc",
    "version": "0.5.1+commit.c8a2cb62.Linux.g++"
  },
  "schemaVersion": "3.0.18",
  "updatedAt": "2019-12-03T19:24:37.349Z",
  "devdoc": {
    "methods": {}
  },
  "userdoc": {
    "methods": {}
  }
}