{
  "contractName": "UpgradeabilityProxy",
  "abi": [
    {
      "constant": true,
      "inputs": [],
      "name": "version",
      "outputs": [
        {
          "name": "",
          "type": "string"
        }
      ],
      "payable": false,
      "stateMutability": "view",
      "type": "function"
    },
    {
      "constant": true,
      "inputs": [],
      "name": "implementation",
      "outputs": [
        {
          "name": "",
          "type": "address"
        }
      ],
      "payable": false,
      "stateMutability": "view",
      "type": "function"
    },
    {
      "payable": true,
      "stateMutability": "payable",
      "type": "fallback"
    },
    {
      "anonymous": false,
      "inputs": [
        {
          "indexed": false,
          "name": "version",
          "type": "string"
        },
        {
          "indexed": true,
          "name": "implementation",
          "type": "address"
        }
      ],
      "name": "Upgraded",
      "type": "event"
    },
    {
      "constant": false,
      "inputs": [
        {
          "name": "version",
          "type": "string"
        },
        {
          "name": "implementation",
          "type": "address"
        }
      ],
      "name": "upgradeTo",
      "outputs": [],
      "payable": false,
      "stateMutability": "nonpayable",
      "type": "function"
    }
  ],
  "bytecode": "0x608060405234801561001057600080fd5b50610700806100206000396000f3fe608060405260043610610051576000357c01000000000000000000000000000000000000000000000000000000009004806354fd4d50146101995780635a8b1a9f146102295780635c60da1b14610311575b600061005b610368565b9050600073ffffffffffffffffffffffffffffffffffffffff168173ffffffffffffffffffffffffffffffffffffffff1614151515610128576040517f08c379a00000000000000000000000000000000000000000000000000000000081526004018080602001828103825260358152602001807f6f776e65722063616e6e6f742073657420697473656c6620617320746865206981526020017f6d706c656d656e746174696f6e2061646472657373000000000000000000000081525060400191505060405180910390fd5b60606000368080601f016020809104026020016040519081016040528093929190818152602001838380828437600081840152601f19601f82011690508083019250505050505050905060405136600082376000803683865af43d806000843e8160008114610195578184f35b8184fd5b3480156101a557600080fd5b506101ae610392565b6040518080602001828103825283818151815260200191508051906020019080838360005b838110156101ee5780820151818401526020810190506101d3565b50505050905090810190601f16801561021b5780820380516001836020036101000a031916815260200191505b509250505060405180910390f35b34801561023557600080fd5b5061030f6004803603604081101561024c57600080fd5b810190808035906020019064010000000081111561026957600080fd5b82018360208201111561027b57600080fd5b8035906020019184600183028401116401000000008311171561029d57600080fd5b91908080601f016020809104026020016040519081016040528093929190818152602001838380828437600081840152601f19601f820116905080830192505050505050509192919290803573ffffffffffffffffffffffffffffffffffffffff169060200190929190505050610434565b005b34801561031d57600080fd5b50610326610368565b604051808273ffffffffffffffffffffffffffffffffffffffff1673ffffffffffffffffffffffffffffffffffffffff16815260200191505060405180910390f35b6000600160009054906101000a900473ffffffffffffffffffffffffffffffffffffffff16905090565b606060008054600181600116156101000203166002900480601f01602080910402602001604051908101604052809291908181526020018280546001816001161561010002031660029004801561042a5780601f106103ff5761010080835404028352916020019161042a565b820191906000526020600020905b81548152906001019060200180831161040d57829003601f168201915b5050505050905090565b8073ffffffffffffffffffffffffffffffffffffffff16600160009054906101000a900473ffffffffffffffffffffffffffffffffffffffff1673ffffffffffffffffffffffffffffffffffffffff1614151515610520576040517f08c379a000000000000000000000000000000000000000000000000000000000815260040180806020018281038252602e8152602001807f63616e6e6f7420757365206578697374696e6720696d706c656d656e7461746981526020017f6f6e20666f72207570677261646500000000000000000000000000000000000081525060400191505060405180910390fd5b816000908051906020019061053692919061062f565b5080600160006101000a81548173ffffffffffffffffffffffffffffffffffffffff021916908373ffffffffffffffffffffffffffffffffffffffff1602179055508073ffffffffffffffffffffffffffffffffffffffff167f8e05e0e35ff592971ca8b477d4285a33a61ded208d644042667b78693a472f5e836040518080602001828103825283818151815260200191508051906020019080838360005b838110156105f15780820151818401526020810190506105d6565b50505050905090810190601f16801561061e5780820380516001836020036101000a031916815260200191505b509250505060405180910390a25050565b828054600181600116156101000203166002900490600052602060002090601f016020900481019282601f1061067057805160ff191683800117855561069e565b8280016001018555821561069e579182015b8281111561069d578251825591602001919060010190610682565b5b5090506106ab91906106af565b5090565b6106d191905b808211156106cd5760008160009055506001016106b5565b5090565b9056fea165627a7a723058204d6d86ad8344b8e5214f699d9c94a95561f35fc044e3a99920bb41b992db36c10029",
  "source": "pragma solidity ^0.5.1;\n\nimport './Proxy.sol';\nimport './UpgradeabilityStorage.sol';\n\ncontract UpgradeabilityProxy is Proxy, UpgradeabilityStorage {\n  event Upgraded(string version, address indexed implementation);\n  function upgradeTo(string memory version, address implementation) public {\n    require(_implementation != implementation, 'cannot use existing implementation for upgrade');\n    _version = version;\n    _implementation = implementation;\n    emit Upgraded(version, implementation);\n  }\n}",
  "sourcePath": "/Users/lakshmikanth/Documents/DefiZap/Solidity-Eternal-Proxy/contracts/proxy/UpgradeabilityProxy.sol",
  "compiler": {
    "name": "solc",
    "version": "0.5.1+commit.c8a2cb62.Linux.g++"
  },
  "schemaVersion": "3.0.18",
  "updatedAt": "2019-12-03T19:41:53.408Z",
  "networkType": "ethereum",
  "devdoc": {
    "methods": {}
  },
  "userdoc": {
    "methods": {}
  }
}